:02000000642872
:0E0006008312031326088A00250882000800D2
:100014000E3083120313FD00FD0B0E2800000800B0
:10002400831603139816903083129800831687174B
:10003400071383128C1E21281A08F0001B280800BD
:10004400FF3083120313A200FF30A300FF30A4008B
:10005400FF309F01C0309F0483161F179F17831220
:040064001F1408005D
:1000680003208A110A128000840AA50A0319A60A25
:08007800F003031D3428080009
:10008000831203139F01C0309F0483161F179F170D
:1000900083122708F000F00D7010F00D7010F00DB5
:1000A000701070089F041F140A201F151F1D5A2866
:1000B000000056281F101E08F100F00183161E08CC
:0800C000F0040030F104080017
:1000C8003330831603139900181512202220831643
:1000D800061002308312A700402070088312A00087
:1000E8007108A10080307106F2008030013A720276
:1000F800031D8028F430700203188428061485280C
:0601080006106D28862898
:02400E004A2F37
:00000001FF
