:020000005C2A78
:0C000600000000000000000000000800E6
:10001200243083120313FC00B530FD00FD0B0F28C2
:0A002200FC0B0F280000000008008E
:0E002C00533083120313FD00FD0B1A28080049
:10003A007B15FB1F27280130F300F201F101F001C3
:08004A00FA0DF20CFF30080072
:08005200FA1FF2130030080050
:0E005A00F201F101F001F801F301003008009D
:1000680083120313F801F9011030FC00710DF80D2B
:10007800F90D7408F8027508031C750FF9020318C6
:100088004C287408F80775080318750FF90703104A
:0A009800F00DF10DFC0B3A280800F2
:1000A20083120313D91B5728061058280614591B0C
:1000B2005C2886105D288614D91A612806116228E8
:1000C2000615591A662886116728861543186B2863
:1000D20006166C280612861603208612D919732872
:1000E200061074280614591978288610792886145F
:1000F200D9187D2806117E280615591882288611DE
:10010200832886154318872806168828061286161D
:1001120003208612431C8F280920902816200800ED
:100122008312031343105408D900512043140800CA
:10013200A0017208031DAE287108F2007008F100D8
:10014200F001A0157208031DAE287108F200F1013A
:10015200A011201672080319BC282008F302031DFF
:10016200031CC0280310F21BC428F00DF10DF20D80
:10017200F30BB428C0280130FC002D20C728023020
:0E018200FC001D20C7280430FC0029200800C6
:0E0190008312031328088A0027088200080043
:10019E00243083120313FD00FD0BD328000008004A
:1001AE0083120313D701053057020318E5285708A9
:1001BE005607840020308000D70ADA2857085607E1
:1001CE0084008001D70357085607D8000A30F40080
:1001DE00F5015408F0005508F10034207808F000BD
:1001EE007908F1003030F00758088400700880005C
:1001FE000A30F400F5015408F0005508F1003420DF
:10020E007008D4007108D50000307106031D112945
:10021E0000307006031D14291629D703EA2808009A
:10022E00831203137008F8007108F000F101F20157
:10023E00F301FB01FC019630F300FA017008F100A6
:0C024E007808F000F801F2019920080087
:10025A003F29803083120313CB005229C030CB00D0
:10026A0052299430CB005229D430CB005229803005
:10027A00CB005229831203134B08013A03192E2982
:10028A004B08023A031933294B08033A0319362952
:10029A004B08043A031939293C294C03F0004B084E
:1002AA00F0077008CB007008D90051204310CE0126
:1002BA004E084D078400000803196B294E084D07A4
:1002CA0084000008D4009120CE0A5D294314080056
:1002DA00831203139F01303083169F0083124B0849
:1002EA00F000F00D7010F00D701070089F041F14CC
:1002FA00CF209F149F1C832900007F291F101E08EE
:06030A00F000F101080003
:1003100083120313D001D1014B08D2004C08D30043
:1003200080304C06F00080307002031D99290030A7
:100330004B020318A7290130D0000030D1004B0830
:10034000003CD2004C08031C013ED301D3025208EA
:10035000D4005308D5004D08D600D7200630CE0073
:100360000030CF004F08003C031DB8294E08003C68
:100370000318D3294E084D07F20001304E02F00059
:100380000030031C013E4F02F10070084D0784004D
:100390000008F00072088400700880000130CE026E
:1003A000031CCF03B2294D08840020308000500880
:1003B00051040319F129CE01CF014E084D078400E5
:1003C0000008203A031DE829CE0A0319CF0ADD29C7
:1003D0000130CE02031CCF034E084D0784002D30A0
:0403E0008000080091
:1003E4008316031386120612861106118610061050
:1003F4008312861206120610861006118611092031
:100404000920092006158615861603208612092060
:1004140086160320861209208616032086120920D8
:10042400861186160320861209208616032086125A
:100434000611061486160320861209200610861556
:10044400861603208612861186160320861209203A
:100454008616032086128615861603208612092026
:100464008611861603208612061486140615861530
:0C0474008616032086120920431408009D
:10048000FF3083120313C400FF30C500FF30C600E5
:10049000FF309F01303083169F0083121F14080025
:1004A000C8208A110A128000840AA70A0319A80A20
:0804B000F003031D502A0800AF
:1004B800683083120313A1006530A2006C30A300DA
:1004C8006C30A4006F30A500A6010330FB008A3011
:1004D800FC005530FD00FD0B6F2AFC0B6F2AFB0B4F
:1004E8006F2A000000004022F2210130D90051207B
:1004F8000C30D90051200130CB000130CC00213024
:10050800CD002D211A30FB005E30FC006E30FD005E
:10051800FD0B8C2AFC0B8C2AFB0B8C2A00007D30EF
:10052800C9000030CA00CB016D217008C7007108EE
:10053800C8000130CB006D217008AD007108AE0015
:100548000230CB006D2117217008A9007108AA009C
:100558007208AB007308AC004708CB004808CC0011
:100568002F30CD0088210130CB000230CC002F3055
:10057800CD002D212D08CB002E08CC002F30CD002A
:1005880088210230CB000230CC002F30CD002D2145
:040598007F2ACD2ABF
:04400E00F23F30004D
:00000001FF
