:020000000429D1
:10000600423083120313FD00FD0B07280000080091
:100016001D3083120313FC009130FD00FD0B1128E7
:06002600FC0B112808008C
:0A002C0000000000000000000800C2
:1000360083120313B01B2128061022280614301B36
:100046002628861027288614B01A2B2806112C2855
:100056000615301A30288611312886152A183528B3
:10006600061636280612861616208612B0193D2860
:1000760006103E2806143019422886104328861496
:10008600B018472806114828061530184C2886113E
:100096004D2886152A185128061652280612861645
:1000A600162086122A1C59280B205A2803200800DD
:0E00B6008312031329088A002808820008001C
:1000C400831203132A102F08B0001B202A140800DF
:1000D4008316031386120612861106118610061063
:1000E40083128612061206108610061186110B2042
:1000F4000B200B20061586158616162086120B205B
:100104008616162086120B208616162086120B20C1
:1001140086118616162086120B2086161620861245
:10012400061106148616162086120B200610861554
:1001340086161620861286118616162086120B2025
:1001440086161620861286158616162086120B2011
:100154008611861616208612061486140615861530
:0C0164008616162086120B202A140800B4
:10017000CA28803083120313AB00DD28C030AB00E7
:10018000DD289430AB00DD28D430AB00DD28803092
:10019000AB00DD28831203132B08013A0319B92899
:1001A0002B08023A0319BE282B08033A0319C12869
:1001B0002B08043A0319C428C7282C03F0002B0885
:1001C000F0077008AB007008B0001B202A10AE01C9
:1001D0002E082D07840000080319F6282E082D0785
:1001E00084000008AF006220AE0AE8282A14080044
:1001F0005B208A110A128000840AA80A0319A90A3E
:08020000F003031DF8280800BB
:10020800733083120313A0006830A1006F30A2007E
:100218007530A3006D30A4006D30A5006F30A600C6
:10022800A7016A200130B0001B200C30B0001B2051
:100238000230AB000230AC002030AD00B8202329DA
:02400E004A2F37
:00000001FF
