:020000000629CF
:0E000600533083120313FD00FD0B0728080082
:10001400243083120313FC00B530FD00FD0B1028BF
:0A002400FC0B10280000000008008B
:0C002E00000000000000000000000800BE
:10003A0083120313B41B2328061024280614341B26
:10004A002828861029288614B41A2D2806112E2845
:10005A000615341A32288611332886152C183728A3
:10006A00061638280612861617208612B4193F2853
:10007A000610402806143419442886104528861488
:10008A00B418492806114A28061534184E2886112C
:10009A004F2886152C185328061654280612861639
:1000AA00172086122C1C5B280A205C2803200800D3
:0E00BA00831203132E088A002D08820008000E
:1000C800831203132C103308B4001D202C140800CD
:1000D800831603138612061286110611861006105F
:1000E80083128612061206108610061186110A203F
:1000F8000A200A20061586158616172086120A2059
:100108008616172086120A208616172086120A20BD
:1001180086118616172086120A2086161720861240
:10012800061106148616172086120A200610861550
:1001380086161720861286118616172086120A2020
:1001480086161720861286158616172086120A200C
:10015800861186161720861206148614061586152B
:0C0168008616172086120A202C140800AE
:10017400CC28803083120313AF00DF28C030AF00D7
:10018400DF289430AF00DF28D430AF00DF28803080
:10019400AF00DF28831203132F08013A0319BB2889
:1001A4002F08023A0319C0282F08033A0319C32859
:1001B4002F08043A0319C628C9283003F0002F0871
:1001C400F0077008AF007008B4001D202C10B201B5
:1001D40032083107840000080319F828320831076F
:1001E40084000008B3006420B20AEA282C14080032
:1001F4005D208A110A128000840AAD0A0319AE0A2E
:08020400F003031DFA280800B5
:10020C006A3083120313A0006F30A1006C30A2007F
:10021C007330A3006530A400A5016A30A6006F30CE
:10022C00A7006C30A8007330A9006530AA00AB01A0
:10023C006C200130B4001D200C30B4001D200230A5
:10024C00AF000130B0002630B100BA200D30FB00F9
:10025C00AF30FC00B630FD00FD0B3229FC0B32290F
:10026C00FB0B322900000230AF000130B00020300F
:08027C00B100BA203929412923
:04400E00F23F30004D
:00000001FF
