:02000000332BA0
:0E000600533083120313FD00FD0B0728080082
:0C001400000000000000000000000800D8
:10002000243083120313FC00B530FD00FD0B1628AD
:0A003000FC0B162800000000080079
:10003A007B15FB1F27280130F300F201F101F001C3
:08004A00FA0DF20CFF30080072
:1000520083160313A21B30288312861132288312BF
:1000620086158316221B3828831206113A2883121A
:1000720006158316A21A402883128610422883127C
:1000820086148316221A4828831206104A288312DD
:10009200061440184E2806164F28061286160A2005
:1000A20086128316A2195828831286115A2883129F
:1000B200861583162219602883120611622883127C
:1000C20006158316A2186828831286106A288312DE
:1000D200861483162218702883120610722883123F
:1000E20006144018762806167728061286160A2065
:0E00F2008612401C7E2810207F280320080064
:0E010000F201F101F001F801F30100300800F6
:08010E00FA1FF2130030080093
:1001160083120313F801F9011030FC00710DF80D7C
:10012600F90D7408F8027508031C750FF902031817
:10013600A3287408F80775080318750FF907031044
:0A014600F00DF10DFC0B91280800EC
:10015000FB14FB1FB228FF30F300F200F100F000A7
:08016000FA0DF20CFF3008005B
:0E016800831203133F088A003E08820008003D
:10017600A0017208031DD0287108F2007008F10072
:10018600F001A0157208031DD0287108F200F101D4
:10019600A011201672080319DE282008F302031D99
:1001A600031CE2280310F21BE628F00DF10DF20DF8
:1001B600F30BD628E2280130FC008020E928023023
:0E01C600FC001D20E9280430FC008720080002
:1001D40083160313A001053020020318F828200811
:1001E4006F07840020308000A00AED2820086F07E4
:1001F40084008001A00320086F07A1000A30F400E6
:10020400F5016D08F0006E08F1008B207808F0000D
:100214007908F1003030F007831621088400700853
:1002240080000A30F400F5016D08F0006E08F1005A
:100234008B207008ED007108EE0000307106031D7C
:10024400252900307006031D28292B298316A003B5
:04025400FD28080079
:100258008312031340106D088316A200292040144E
:0202680008008C
:10026A00243083120313FD00FD0B39290000080016
:10027A0083120313FB017308031D770803199429DA
:10028A0072087606FA007708F3077E30031C5129B4
:10029A00F302031897295429F302031C9A297208B6
:1002AA00F8007108FC007008FD00F817F617031033
:1002BA00F201F101F0011830A0007D1C6E297408CA
:1002CA00F00775080318750FF10776080318760FFB
:1002DA00F207F20CF10CF00CF80CFC0CFD0C0310FC
:1002EA00A00B6229F21B7E29F80DF00DF10DF20D1B
:1002FA00F3037B1B701C9029F81F9029F00A03193D
:10030A00F10A0319F20A031D9029F20CF10CF00C00
:10031A00F30A03199729FA1FF21300309C290130B6
:10032A0080209C290230A8209C2904301D2000002E
:02033A000800B9
:10033C0083120313FA017308031D7A147708031D43
:10034C00FA147A080319EA29033A0319B5297A1819
:10035C00B229F61FE829E629F21FE629E8297208D6
:10036C008039FA00F21376088039F6137A060319ED
:10037C00C3297A080319E629E829770873020319B7
:10038C00CA29031CDE29E229760872020319D12935
:10039C00031CDE29E229750871020319D829031CF4
:1003AC00DE29E229740870020319EA290318E229EC
:1003BC00FA080319E829E629FA080319E629E829B5
:1003CC0003140800031008000314031508000800A8
:1003DC0083120313E901EA016408EB006508EC00E1
:1003EC0080306506F00080307002031DFF2900305C
:1003FC00640203180D2A0130E9000030EA00640899
:10040C00003CEB006508031C013EEC01EC026B08A0
:10041C00ED006C08EE006608EF00EA20063083124F
:10042C000313E7000030E8006808003C031D202A95
:10043C006708003C03183B2A67086607F200013086
:10044C006702F0000030031C013E6802F1007008E6
:10045C00660784000008F0007208840070088000B1
:10046C000130E702031CE8031A2A660884002030D6
:10047C00800069086A040319592AE701E801670832
:10048C00660784000008203A031D502AE70A031966
:10049C00E80A452A0130E702031CE80367086607EF
:0804AC0084002D3080000800DF
:1004B400831203137008F8007108F000F101F201CF
:1004C400F301FB01FC019630F300FA017008F1001E
:0C04D4007808F000F801F201BB200800DD
:1004E000831203139F01C0309F046408F000F00DD5
:1004F0007010F00D7010F00D701070089F041F1434
:1005000035211F151F1D862A0000822A1F101E0874
:06051000F000F1010800FB
:10051600831603138612061206108610061186111C
:1005260083128612061286110611861006101020F6
:10053600102010208614061486160A208612102013
:1005460086160A208612102086160A208612102089
:10055600061086160A208612102086160A20861293
:100566008610861586160A20861210208611061415
:1005760086160A208612061086160A208612102073
:1005860086160A208612061486160A20861210205F
:10059600061086160A208612861506158614061477
:0C05A60086160A2086121020401408005F
:1005B200FF3083120313C100FF30C200FF30C300BB
:0C05C200FF309F01C0309F041F14080090
:1005CE00F92A803083120313E4000A2BC030E400B2
:1005DE000A2B9430E4000A2BD430E4000A2B80302E
:1005EE00E4000A2B6408013A0319E82A6408023A67
:1005FE000319ED2A6408033A0319F02A6408043A31
:10060E000319F32AF62A03136503F0006408F007B2
:10061E007008E40070088316A20029204010E7013C
:10062E0067086607840000080319252B670866070C
:10063E0084000008ED002C21E70A172B4014080057
:10064E00B4208A110A128000840ABE0A0319BF0A56
:08065E00F003031D272B080027
:100666004C3083120313A1006930A2006730A30047
:100676006830A4007430A5007330A6002030A700AF
:100686004F30A8006E30A9002130AA002130AB00FF
:10069600AC014C30AD006930AE006730AF00683059
:1006A600B0007430B1007330B2002030B3004F3068
:1006B600B4007530B5007430B6002130B700213073
:1006C600B800B901BA01BB01831687138B2201302A
:1006D6008316A20029200C308316A2002920BE30E2
:1006E600BC00BD01D922E40170227008DA0071084D
:1006F600DB000130E40070227008D8007108D900D0
:100706000230E40070225A227008E0007108E1000D
:100716007208E2007308E300F830F400FA30F500DE
:100726007A30F6007F30F7003D217008DC00710852
:10073600DD007208DE007308DF0080303D06F00041
:1007460080305B067002031DAA2B5A083C02031870
:10075600C62B80303D06F000803059067002031D1E
:10076600B62B58083C020318C62B3A08E4003B088F
:10077600E5004430E600EE210230E4000630E500F4
:100786004430E600E72280305B06F00080303D060C
:100796007002031DD02B3C085A020318652C8030CA
:1007A6003D06F000803059067002031DDC2B580808
:1007B6003C020318652C80305B06F00080303D0655
:1007C6007002031DE82B3C085A020318F12BE401C2
:1007D60070227008DA007108DB00DE2B80303D06DF
:1007E600F000803059067002031DFB2B58083C02AE
:1007F6000318052C0130E40070227008D800710837
:10080600D900F12B80305906F00080303D06700289
:10081600031D0F2C3C0858020318192C0130E40064
:1008260070227008D8007108D900052C5C08F40005
:100836005D08F5005E08F6005F08F7000030F0007E
:100846000030F1002030F2008330F3009E210130A9
:1008560003180030F00070080319462C0130E4003C
:100866000630E5002130E600E72287171A30FB0044
:100876005E30FC006E30FD00FD0B3F2CFC0B3F2C68
:10088600FB0B3F2C0000BA0A0319BB0A3A08E40026
:100896003B08E5004430E600EE210230E400063075
:1008A600E5004430E600E7220330FB008A30FC0016
:1008B6005530FD00FD0B5D2CFC0B5D2CFB0B5D2C00
:1008C6000000000080303D06F00080305B067002BC
:1008D600031D6F2C5A083C020318D92C8030590688
:1008E600F00080303D067002031D7B2C3C08580248
:1008F6000318D92C80305906F00080303D0670026E
:10090600031D872C3C0858020318912C0130E40083
:1009160070227008D8007108D9007D2C80303D0601
:10092600F00080305B067002031D9B2C5A083C02C7
:100936000318A42CE40170227008DA007108DB00A9
:10094600912C80305B06F00080303D067002031D5E
:10095600AE2C3C085A020318B72CE401702270082A
:10096600DA007108DB00A42C0130BA02031CBB03B9
:100976003A08E4003B08E5004430E600EE21023088
:10098600E4000530E5004430E600E72200303B068F
:10099600031DCF2C00303A06031DD92C87130130D6
:1009A600E4000630E5002D30E600E722722BDA2C53
:02400E005A0056
:00000001FF
