:020000005D2A77
:0E000600533083120313FD00FD0B0728080082
:0C001400000000000000000000000800D8
:10002000243083120313FC00B530FD00FD0B1628AD
:0A003000FC0B162800000000080079
:0E003A00F201F101F001F801F30100300800BD
:1000480083120313D51B2A2806102B280614551BC8
:100058002F28861030288614D51A342806113528FA
:100068000615551A392886113A2886154C183E283F
:1000780006163F28061286160A208612D519462823
:1000880006104728061455194B2886104C28861444
:10009800D5185028061151280615551855288611C7
:1000A800562886154C185A2806165B2806128616F6
:1000B8000A2086124C1C622810206328032008009E
:0800C800FA1FF21300300800DA
:1000D0007B15FB1F72280130F300F201F101F001E2
:0800E000FA0DF20CFF300800DC
:1000E800243083120313FD00FD0B7828000008005C
:1000F800A0017208031D91287108F2007008F10030
:10010800F001A0157208031D91287108F200F10191
:10011800A0112016720803199F282008F302031D56
:10012800031CA3280310F21BA728F00DF10DF20DF4
:10013800F30B9728A3280130FC001D20AA280230C1
:0E014800FC006820AA280430FC006420080097
:10015600FB14FB1FB528FF30F300F200F100F0009E
:08016600FA0DF20CFF30080055
:10016E00831203134C105408D50024204C1408009D
:0E017E00831203134B088A004A08820008000F
:10018C00D828803083120313D000EB28C030D00065
:10019C00EB289430D000EB28D430D000EB28803002
:1001AC00D000EB28831203135008013A0319C72817
:1001BC005008023A0319CC285008033A0319CF28E7
:1001CC005008043A0319D228D5285103F0005008DE
:1001DC00F0077008D0007008D50024204C10D30113
:1001EC0053085207840000080319042953085207C6
:1001FC0084000008D400B720D30AF6284C14080059
:10020C0083120313FB017308031D770803195D297F
:10021C0072087606FA007708F3077E30031C1A2959
:10022C00F302031860291D29F302031C63297208C9
:10023C00F8007108FC007008FD00F817F6170310A1
:10024C00F201F101F0011830A0007D1C372974086F
:10025C00F00775080318750FF10776080318760F69
:10026C00F207F20CF10CF00CF80CFC0CFD0C03106A
:10027C00A00B2B29F21B4729F80DF00DF10DF20DF7
:10028C00F3037B1B701C5929F81F5929F00A031919
:10029C00F10A0319F20A031D5929F20CF10CF00CA6
:1002AC00F30A03196029FA1FF21300306529013093
:1002BC001D2065290230AB20652904306820000020
:0202CC00080028
:1002CE0083120313FA017308031D7A147708031DB2
:1002DE00FA147A080319B329033A03197E297A18F6
:1002EE007B29F61FB129AF29F21FAF29B129720858
:1002FE008039FA00F21376088039F6137A0603195C
:10030E008C297A080319AF29B129770873020319CA
:10031E009329031CA729AB297608720203199A297F
:10032E00031CA729AB29750871020319A129031C07
:10033E00A729AB29740870020319B3290318AB2936
:10034E00FA080319B129AF29FA080319AF29B129FF
:10035E000314080003100800031403150800080016
:10036E00831203137008F8007108F000F101F20116
:10037E00F301FB01FC019630F300FA017008F10065
:0C038E007808F000F801F2017C20080063
:10039A00BF208A110A128000840ACA0A0319CB0AEA
:0803AA00F003031DCD2908003A
:1003B200FF3083120313CD00FF30CE00FF30CF0099
:1003C200FF309F01C0309F0483161F179F178312AF
:0403D2001F140800EC
:1003D600831203139F01C0309F0483161F179F17B4
:1003E60083125008F000F00D7010F00D7010F00D33
:1003F600701070089F041F1474201F151F1D052AF6
:100406000000012A1F101E08F100F00183161E08C5
:08041600F0040030F1040800BD
:10041E008316031386120612861106118610061015
:10042E0083128612061206108610061186111020EF
:10043E00102010200615861586160A20861210200A
:10044E0086160A208612102086160A208612102082
:10045E00861186160A208612102086160A2086120B
:10046E000611061486160A2086121020061086150E
:10047E0086160A208612861186160A2086121020EB
:10048E0086160A208612861586160A2086121020D7
:10049E00861186160A2086120614861406158615EF
:0C04AE0086160A20861210204C1408004C
:1004BA00323083120313A100A2013330A300A40136
:1004CA003730A500A6013630A700A8016630A9007A
:1004DA006930AA006E30AB006930AC007330AD00F1
:1004EA006830AE006530AF006430B000B10135301D
:1004FA00B200B3016A30B4006F30B5006C30B60098
:10050A007330B7006530B800B9013430BA00BB01A6
:10051A00831606130F220130D50024200C30D50093
:10052A002420F430C8000130C900D921D001EB21C0
:10053A0070088312BE007108BF000130D000EB21A1
:10054A0070088312BC007108BD000230D000EB2194
:10055A00B7217008C0007108C1007208C200730890
:10056A00C3000030F4000030F5007A30F6007D3028
:10057A00F70006217008C4007108C5007208C60099
:10058A007308C70080304906F00080303F067002C9
:10059A00031DD12A3E0848020318602B80303D060D
:1005AA00F000803049067002031DDD2A48083C022B
:1005BA000318602B80304906F00080303F06700235
:1005CA00031DE92A3E0848020318FA2AD001EB2142
:1005DA0070088312BE007108BF000130D0000230DB
:1005EA00D1002130D200C620DF2A80303D06F0003B
:1005FA00803049067002031D042B48083C02031888
:10060A00162B0130D000EB2170088312BC00710850
:10061A00BD000130D0000230D1002330D200C62004
:10062A00FA2A80304906F00080303D067002031D28
:10063A00202B3C0848020318322B0130D000EB2152
:10064A0070088312BC007108BD000130D00002306E
:10065A00D1003A30D200C620162B4408F4004508CF
:10066A00F5004608F6004708F7000030F0000030B1
:10067A00F1004830F2008330F3006721013003189B
:10068A000030F00070080319522B0230D0000130FC
:10069A00D1003430D200C62006170330FB008A305E
:1006AA00FC005530FD00FD0B582BFC0B582BFB0BA7
:1006BA00582B0000000080303F06F00080304906C9
:1006CA007002031D6A2B48083E020318D22B8030A1
:1006DA004906F00080303D067002031D762B3C0867
:1006EA0048020318D22B80304906F00080303D06BC
:1006FA007002031D822B3C0848020318942B013018
:10070A00D000EB2170088312BC007108BD000130D3
:10071A00D0000230D1003230D200C620782B80308F
:10072A003F06F000803049067002031D9E2B4808E0
:10073A003E020318AF2BD001EB2170088312BE00D2
:10074A007108BF000130D0000230D1002730D2003A
:10075A00C620942B80304906F00080303F06700294
:10076A00031DB92B3E0848020318CA2BD001EB21FE
:10077A0070088312BE007108BF000130D000023039
:10078A00D1002530D200C620AF2B06130230D0008C
:0E079A000130D1002930D200C620962AD32B80
:02400E004A2F37
:00000001FF
