:02000000412994
:1000060083120313FB01FA01F9018030F800F10CA9
:10001600F00C031C17287408F90775080318750FE8
:10002600FA070318FB0A0310F01F1F287408FA07C3
:1000360075080318750FFB07FB0CFA0CF90CF80C86
:10004600031C0A287B08F3007A08F2007908F100FD
:060056007808F00008002C
:10005C00831603131208013EF000F1010318F10A94
:10006C0083122F08F400F50103200630F20070080B
:10007C00F4007108F500720803194928F50CF40C0A
:10008C00F513FF3E42280430F1007408F0007108AB
:10009C0003195428F00D7010FF3E4E2830307005B7
:1000AC00F3007408F0007508F100F10CF00CF1137A
:1000BC00F10CF00CF113700895000F3097057308D4
:0400CC00970408008D
:0E00D0008312031327088A0026088200080006
:1000DE00831603131208013EF000F1010318F10A12
:1000EE0083122F08F400F50103200630F200700889
:1000FE00F4007108F500720803198A28F50CF40C47
:10010E00F513FF3E83280430F1007408F0007108E7
:10011E0003199528F00D7010FF3E8F2830307005B2
:10012E00F3007408F0007508F100F10CF00CF113F7
:10013E00F10CF00CF11370089B000F309D05730845
:04014E009D04080004
:100152000E3083120313FD00FD0BAD2800000800D2
:10016200FF3083120313A800FF30A900FF30AA005A
:10017200FF309F01C0309F0483161F179F17831201
:040182001F1408003E
:0C018600831203139B011D129D12080040
:100192008312031386140611FF30AF002E2086153A
:0A01A2000612FF30AF006F200800C6
:1001AC00831603138710831212150C309D0408005C
:1001BC00831203139F01C0309F0483161F179F17D0
:1001CC0083122B08F000F00D7010F00D7010F00D74
:1001DC00701070089F041F14A9201F151F1DF828EC
:1001EC000000F4281F101E08F100F00183161E08F1
:0801FC00F0040030F1040800DA
:0C020400831203139501171297120800D3
:1002100083120313861406116430AF002E20861556
:0A0220000612FF30AF006F20080047
:10022A008312031386140611FF30AF002E208615A1
:0A023A0006126430AF006F200800C8
:1002440068208A110A128000840AA60A0319A70AE0
:08025400F003031D222908003C
:10025C00831603130711831212150C309704080030
:10026C008312031386100615AF012E208611061675
:06027C00AF016F20080035
:10028200B1201214921063308316920002211214CC
:100292009210633083169200C3202E21D62083163B
:1002A2008610061186110612871007118312AB0100
:1002B200DE2070088312A4007108A5000130AB0093
:1002C200DE2070088312A2007108A3000230AB0086
:1002D200DE2070088312A0007108A1008030013A6C
:1002E200F000803025067002031D79292408F43CB1
:1002F2000318952980302306F0008030013A7002FD
:10030200031D8529F4302202031895298030013A11
:10031200F000803021067002031D91292008F43C70
:1003220003189529C920082A80302506F00080305C
:10033200013A7002031D9F29F43024020318BB29DD
:100342008030013AF000803023067002031DAB2991
:100352002208F43C0318BB2980302106F0008030CB
:10036200013A7002031DB729F43020020318BB2999
:100372003621082A80302506F0008030013A7002CA
:10038200031DC529F43024020318E1298030013A03
:10039200F000803023067002031DD1292208F43CAC
:1003A2000318E1298030013AF00080302106700202
:1003B200031DDD292008F43C0318E1291521082A30
:1003C2008030013AF000803025067002031DEB29CF
:1003D2002408F43C0318072A8030013AF0008030E8
:1003E20023067002031DF7292208F43C0318072A8A
:1003F20080302106F0008030013A7002031D032A8A
:10040200F43020020318072A0821082A36216F290E
:02041200092AB5
:02400E004A2F37
:00000001FF
