:020000000B2AC9
:0E000600533083120313FD00FD0B0728080082
:10001400243083120313FC00B530FD00FD0B1028BF
:0A002400FC0B10280000000008008B
:0C002E00000000000000000000000800BE
:10003A0083120313DF1B23280610242806145F1BD0
:10004A002828861029288614DF1A2D2806112E281A
:10005A0006155F1A3228861133288615381837286C
:10006A00061638280612861617208612DF193F2828
:10007A000610402806145F1944288610452886145D
:10008A00DF18492806114A2806155F184E288611D6
:10009A004F2886153818532806165428061286162D
:1000AA0017208612381C5B280A205C2803200800C7
:1000BA0083120313F801F9011030FC00710DF80DD9
:1000CA00F90D7408F8027508031C750FF902031874
:1000DA0075287408F80775080318750FF9070310CF
:0A00EA00F00DF10DFC0B6328080077
:1000F4008312031338105A08DF001D203814080037
:0E0104008312031334088A00330882000800B7
:1001120083120313DD0105305D02031897285D0881
:100122005C07840020308000DD0A8C285D085C07B3
:1001320084008001DD035D085C07DE000A30F40004
:10014200F5015A08F0005B08F1005D207808F00024
:100152007908F1003030F0075E08840070088000F2
:100162000A30F400F5015A08F0005B08F1005D2046
:100172007008DA007108DB0000307106031DC32825
:1001820000307006031DC628C828DD039C2808001D
:10019200243083120313FD00FD0BCD28000008005C
:1001A200E328803083120313D100F628C030D10037
:1001B200F6289430D100F628D430D100F6288030C9
:1001C200D100F628831203135108013A0319D228E9
:1001D2005108023A0319D7285108033A0319DA28B9
:1001E2005108043A0319DD28E0285203F0005108AF
:1001F200F0077008D1007008DF001D203810D4010C
:10020200540853078400000803190F2954085307A0
:1002120084000008DA007A20D40A01293814080080
:1002220083120313D601D7015108D8005208D9000E
:1002320080305206F00080307002031D2229003007
:100242005102031830290130D6000030D70051087E
:10025200003CD8005208031C013ED901D9025808BB
:10026200DA005908DB005308DC0089200630D4008C
:100272000030D5005508003C031D41295408003CBC
:1002820003185C2954085307F20001305402F000AD
:100292000030031C013E5502F10070085307840030
:1002A2000008F00072088400700880000130D40257
:1002B200031CD5033B2953088400203080005608D4
:1002C200570403197A29D401D5015408530784002D
:1002D2000008203A031D7129D40A0319D50A662998
:1002E2000130D402031CD5035408530784002D3077
:0402F2008000080080
:1002F600831203139F01C0309F0483161F179F1795
:1003060083125108F000F00D7010F00D7010F00D12
:10031600701070089F041F14C9201F151F1D9529F2
:10032600000091291F101E08F100F00183161E0817
:08033600F0040030F10408009E
:10033E0083160313861206128611061186100610F6
:10034E0083128612061206108610061186110A20D6
:10035E000A200A20061586158616172086120A20F0
:10036E008616172086120A208616172086120A2055
:10037E0086118616172086120A20861617208612D8
:10038E00061106148616172086120A2006108615E8
:10039E0086161720861286118616172086120A20B8
:1003AE0086161720861286158616172086120A20A4
:1003BE0086118616172086120614861406158615C3
:0C03CE008616172086120A20381408003A
:1003DA0082208A110A128000840AB30A0319B40A15
:0803EA00F003031DED290800DA
:1003F200FF3083120313B500FF30B600FF30B700A1
:10040200FF309F01C0309F0483161F179F1783126E
:040412001F140800AB
:1004160083120313A001A1017030A2006530A3006E
:100426007230A4007330A5006F30A6006E30A700AE
:100436002030A8007030A9007230AA006530AB00E9
:100446007330AC006530AD006E30AE007430AF0076
:10045600B0019F210130DF001D200C30DF001D2080
:100466005030B1000030B200F921D1017B21700873
:100476008312BB007108BC000330D1007B217008D9
:100486008312B9007108BA0080303206F00080305D
:100496003C067002031D512A3B0831020318742AD8
:1004A60080303206F00080303A067002031D5D2A65
:1004B600390831020318742A2008D1002108D20015
:1004C6003D30D30011210230D1000230D2003D3040
:1004D600D300D1200130D1000230D2002230D30027
:1004E600D12080303C06F000803032067002031DB9
:1004F6007E2A31083B020318E92A80303206F000D2
:1005060080303A067002031D8A2A39083102031820
:10051600E92A80303C06F000803032067002031D66
:10052600962A31083B020318A02AD1017B217008C4
:100536008312BB007108BC008C2A80303206F000A2
:1005460080303A067002031DAA2A390831020318C0
:10055600B52A0330D1007B2170088312B9007108D7
:10056600BA00A02A80303A06F000803032067002C7
:10057600031DBF2A310839020318CA2A0330D100E5
:100586007B2170088312B9007108BA00B52AA00A47
:100596000319A10A2008D1002108D2003D30D3005A
:1005A60011210230D1000230D2003D30D300D120DB
:1005B6000330FB008A30FC005530FD00FD0BE12ABC
:1005C600FC0BE12AFB0BE12A00000000803032061A
:1005D600F00080303C067002031DF32A3B0831020E
:1005E6000318502B80303A06F00080303206700235
:1005F600031DFF2A310839020318502B80303A06B2
:10060600F000803032067002031D0B2B31083902D0
:100616000318162B0330D1007B2170088312B90012
:100626007108BA00012B80303206F00080303C069B
:100636007002031D202B3B08310203182A2BD1011F
:100646007B2170088312BB007108BC00162B80301A
:100656003C06F000803032067002031D342B310850
:100666003B0203183E2BD1017B2170088312BB008D
:100676007108BC002A2B0130A002031CA10320082C
:10068600D1002108D2003D30D30011210230D10023
:0E0696000230D2003D30D300D120332A512B48
:02400E004A2F37
:00000001FF
