:020000001628C0
:0E0006008312031321088A00200882000800DC
:1000140003208A110A128000840AA00A0319A10A83
:08002400F003031D0A28080087
:10002C0083160313861006118611831286140B3067
:10003C00FB002630FC005D30FD00FD0B2328FC0B83
:10004C002328FB0B23280000000086100B30FB003C
:10005C002630FC005D30FD00FD0B3228FC0B3228F5
:10006C00FB0B32280000000006150B30FB0026307D
:10007C00FC005D30FD00FD0B4128FC0B4128FB0B07
:10008C0041280000000006110B30FB002630FC005C
:10009C005D30FD00FD0B5028FC0B5028FB0B50284D
:1000AC000000000086150B30FB002630FC005D3094
:1000BC00FD00FD0B5F28FC0B5F28FB0B5F2800008D
:1000CC00000086110B30FB002630FC005D30FD007B
:1000DC00FD0B6E28FC0B6E28FB0B6E28000000003D
:0400EC001B2877282E
:02400E004A2F37
:00000001FF
