:02000000F629DF
:06000600000000000800EC
:10000C000F3083120313FC004730FD00FD0B0C284E
:0A001C00FC0B0C2800000000080097
:0E002600213083120313FD00FD0B1728080084
:1000340083120313F801F9011030FC00710DF80D5F
:10004400F90D7408F8027508031C750FF9020318FA
:1000540032287408F80775080318750FF907031098
:0A006400F00DF10DFC0B2028080040
:10006E0083120313D81B3D2806103E280614581B76
:10007E004228861043288614D81A47280611482885
:10008E000615581A4C2886114D28861533185128F6
:10009E00061652280612861603208612D8195928DB
:1000AE0006105A28061458195E2886105F288614E2
:1000BE00D818632806116428061558186828861162
:1000CE006928861533186D2806166E2806128616B0
:1000DE0003208612331C752806207628132008006C
:0E00EE008312031349088A00480882000800A4
:1000FC008312031333105308D8003720331408002D
:10010C0083120313D601053056020318942856089F
:10011C005507840020308000D60A892856085507D8
:10012C0084008001D60356085507D7000A30F40026
:10013C00F5015308F0005408F1001A207808F0007B
:10014C007908F1003030F0075708840070088000FF
:10015C000A30F400F5015308F0005408F1001A209D
:10016C007008D3007108D40000307106031DC0283C
:10017C0000307006031DC328C528D6039928080033
:10018C000E3083120313FD00FD0BCA28000008007B
:10019C00831203139F01C0309F0483161F179F17F0
:1001AC0083124A08F000F00D7010F00D7010F00D75
:1001BC00701070089F041F14C6201F151F1DE828FF
:1001CC000000E4281F101E08F100F00183161E0821
:0801DC00F0040030F1040800FA
:1001E4000429803083120313CA001729C030CA00BF
:1001F40017299430CA001729D430CA00172980302F
:10020400CA001729831203134A08013A0319F32871
:100214004A08023A0319F8284A08033A0319FB2842
:100224004A08043A0319FE2801294B03F0004A083E
:10023400F0077008CA007008D80037203310CD01C9
:100244004D084C0784000008031930294D084C0759
:1002540084000008D3007E20CD0A2229331408002C
:1002640083120313CF01D0014A08D1004B08D200F6
:1002740080304B06F00080307002031D43290030AB
:100284004A02031851290130CF000030D0004A0837
:10029400003CD1004B08031C013ED201D20251089C
:1002A400D3005208D4004C08D50086200630CD0077
:1002B4000030CE004E08003C031D62294D08003C6E
:1002C40003187D294D084C07F20001304D02F0005F
:1002D4000030031C013E4E02F10070084C078400FC
:1002E4000008F00072088400700880000130CD021C
:1002F400031CCE035C294C088400203080004F0886
:10030400500403199B29CD01CE014D084C078400EC
:100314000008203A031D9229CD0A0319CE0A872921
:100324000130CD02031CCE034D084C0784002D3050
:04033400800008003D
:1003380083160313861206128611061186100610FC
:1003480083128612061206108610061186110620E0
:100358000620062006158615861603208612062016
:10036800861603208612062086160320861206208B
:10037800861186160320861206208616032086120A
:100388000611061486160320861206200610861506
:1003980086160320861286118616032086120620EA
:1003A80086160320861286158616032086120620D6
:1003B80086118616032086120614861406158615DD
:0C03C8008616032086120620331408005D
:1003D40077208A110A128000840AC80A0319C90AFC
:0803E400F003031DEA290800E3
:1003EC00703083120313A0006F30A1007430A20090
:1003FC002030A3006530A4007230A5002030A60088
:10040C007630A7006130A8006C30A9007530AA00C6
:10041C006530AB002030AC002D30AD005F30AE004D
:10042C002D30AF00B0019C210130D80037200C30AA
:10043C00D80037200130CA000130CB002030CC006E
:10044C00F2200230CA00CE2070088312B10071086D
:10045C00B2007008CA007108CB003430CC003221D5
:10046C000230CA000230CB003430CC00F220202AFB
:02047C003E2A16
:02400E004A2F37
:00000001FF
