:02000000082ACC
:0E000600213083120313FD00FD0B07280800B4
:100014000F3083120313FC004730FD00FD0B102842
:0A002400FC0B10280000000008008B
:06002E00000000000800C4
:1000340083120313DE1B20280610212806145E1BDE
:100044002528861026288614DE1A2A2806112B282D
:1000540006155E1A2F288611302886154C18342868
:10006400061635280612861617208612DE193C2835
:1000740006103D2806145E1941288610422886146D
:10008400DE1846280611472806155E184B288611E7
:100094004C2886154C185028061651280612861628
:1000A400172086124C1C58280A20592803200800BF
:1000B40083120313F801F9011030FC00710DF80DDF
:1000C400F90D7408F8027508031C750FF90203187A
:1000D40072287408F80775080318750FF9070310D8
:0A00E400F00DF10DFC0B6028080080
:1000EE00831203134C105908DE001A204C1408001A
:0E00FE00831203134B088A004A088200080090
:10010C0083120313DC0105305C02031894285C088D
:10011C005B07840020308000DC0A89285C085B07C0
:10012C0084008001DC035C085B07DD000A30F4000E
:10013C00F5015908F0005A08F1005A207808F0002F
:10014C007908F1003030F0075D08840070088000F9
:10015C000A30F400F5015908F0005A08F1005A2051
:10016C007008D9007108DA0000307106031DC02830
:10017C0000307006031DC328C528DC03992808002D
:10018C000E3083120313FD00FD0BCA28000008007B
:10019C00E028803083120313D000F328C030D00045
:1001AC00F3289430D000F328D430D000F3288030DA
:1001BC00D000F328831203135008013A0319CF28F7
:1001CC005008023A0319D4285008033A0319D728C7
:1001DC005008043A0319DA28DD285103F0005008BE
:1001EC00F0077008D0007008DE001A204C10D30104
:1001FC00530852078400000803190C2953085207AE
:10020C0084000008D9007720D30AFE284C1408007B
:10021C0083120313D501D6015008D7005108D8001A
:10022C0080305106F00080307002031D1F29003011
:10023C00500203182D290130D5000030D60050088B
:10024C00003CD7005108031C013ED801D8025708C6
:10025C00D9005808DA005208DB0086200630D3009B
:10026C000030D4005408003C031D3E295308003CC8
:10027C000318592953085207F20001305302F000B9
:10028C000030031C013E5402F10070085207840038
:10029C000008F00072088400700880000130D3025E
:1002AC00031CD403382952088400203080005508E0
:1002BC00560403197729D301D4015308520784003B
:1002CC000008203A031D6E29D30A0319D40A6329A6
:1002DC000130D302031CD4035308520784002D3081
:0402EC008000080086
:1002F000831203139F01C0309F0483161F179F179B
:1003000083125008F000F00D7010F00D7010F00D19
:10031000701070089F041F14C6201F151F1D9229FE
:1003200000008E291F101E08F100F00183161E0820
:08033000F0040030F1040800A4
:1003380083160313861206128611061186100610FC
:1003480083128612061206108610061186110A20DC
:100358000A200A20061586158616172086120A20F6
:100368008616172086120A208616172086120A205B
:1003780086118616172086120A20861617208612DE
:10038800061106148616172086120A2006108615EE
:1003980086161720861286118616172086120A20BE
:1003A80086161720861286158616172086120A20AA
:1003B80086118616172086120614861406158615C9
:0C03C8008616172086120A204C1408002C
:1003D4007F208A110A128000840ACA0A0319CB0AF0
:0803E400F003031DEA290800E3
:1003EC00FF3083120313CD00FF30CE00FF30CF005F
:1003FC00FF309F01C0309F0483161F179F17831275
:04040C001F140800B1
:1004100083120313A001A1013130A200A3013630E1
:10042000A400A5013530A600A7013730A800A90116
:100430003330AA00AB013230AC00AD013430AE0035
:10044000AF019C210130DE001A200C30DE001A20A2
:10045000F430B2000130B300F621D00178217008E9
:100460008312B0007108B1000130D000782170080B
:100470008312B4007108B50080303106F00080307E
:1004800033067002031D462A320830020318692A17
:1004900080303506F000803033067002031D522A8A
:1004A000320834020318692A2008D0002108D1003C
:1004B0003630D2000E210230D0000230D10036306A
:1004C000D200CE200130D0000230D1002230D20044
:1004D000CE2080303306F000803031067002031DDC
:1004E000732A300832020318F22A80303506F000F1
:1004F000803033067002031D7F2A3208340203184D
:10050000F22A80303306F000803031067002031D7D
:100510008B2A3008320203189C2AD00178217008F7
:100520008312B0007108B1000130D0000230D10058
:100530002C30D200CE20812A80303506F000803069
:1005400033067002031DA62A320834020318B82AA3
:100550000130D000782170088312B4007108B50012
:100560000130D0000230D1002A30D200CE209C2AA7
:1005700080303306F000803035067002031DC22A39
:10058000340832020318D42A0130D00078217008D0
:100590008312B4007108B5000130D0000230D100E0
:1005A0002E30D200CE20B82AA00A0319A10A2008B2
:1005B000D0002108D1003630D2000E210230D00008
:1005C0000230D1003630D200CE200230FB000430A1
:1005D000FC00BA30FD00FD0BEB2AFC0BEB2AFB0BF9
:1005E000EB2A000080303106F000803033067002C4
:1005F000031DFC2A3208300203186E2B80303306AC
:10060000F000803035067002031D082B34083202DA
:1006100003186E2B80303306F000803035067002F0
:10062000031D142B340832020318262B0130D0008E
:10063000782170088312B4007108B5000130D00031
:100640000230D1002630D200CE200A2B8030310675
:10065000F000803033067002031D302B3208300268
:100660000318412BD001782170088312B000710863
:10067000B1000130D0000230D1002430D200CE20B1
:10068000262B80303306F000803031067002031DC7
:100690004B2B3008320203185C2BD00178217008F4
:1006A0008312B0007108B1000130D0000230D100D7
:1006B0002830D200CE20412B0130A002031CA10320
:1006C0002008D0002108D1003630D2000E2102309F
:1006D000D0000230D1003630D200CE20282A6F2B35
:02400E004A2F37
:00000001FF
