:02000000462890
:100006008316031398180928000003288312420850
:040016009900080045
:0E001A00831203133E088A003D08820008008E
:1000280083120313C1013F0884000008C000400880
:10003800003A031929284008C2000320C10A4108D0
:0C0048003F0784000008C0001B280800CF
:100054000D208A110A128000840ABD0A0319BE0AFF
:08006400F003031D2A28080027
:10006C008316031398169030831298008316871703
:10007C00071383128C1E45281A08F0003F2808002D
:10008C00733083120313A0006830A1006F30A200FC
:10009C007530A3006D30A4006D30A5006F30A60044
:1000AC002030A7007230A8006F30A9006330AA007E
:1000BC006B30AB007330AC002030AD006130AE0063
:1000CC006E30AF006430B0002030B1007530B2003B
:1000DC002030B3007330B4007530B5006330B60017
:1000EC006B30B7002030B8003A30B9004430BA0059
:1000FC002030BB00BC013330831699001815362014
:10010C002030BF0014200B30FB002630FC005D308B
:10011C00FD00FD0B8F28FC0B8F28FB0B8F2800009C
:0C012C0000000D30C200032086289B2834
:02400E004A2F37
:00000001FF
