:02000000D12805
:0E0006008312031321088A00200882000800DC
:1000140083120313FB01FA01F9018030F800F10C9B
:10002400F00C031C1E287408F90775080318750FD3
:10003400FA070318FB0A0310F01F26287408FA07AE
:1000440075080318750FFB07FB0CFA0CF90CF80C78
:10005400031C11287B08F3007A08F2007908F100E8
:060064007808F00008001E
:0C006A00831203139B011D129D1208005D
:10007600831603138710831212150C309D04080093
:10008600831603130711831212150C309704080008
:0C00960083120313950117129712080043
:1000A200831603131208013EF000F1010318F10A4E
:1000B20083122208F400F5010A200630F2007008CB
:1000C200F4007108F500720803196C28F50CF40CA1
:1000D200F513FF3E65280430F1007408F000710842
:1000E20003197728F00D7010FF3E7128303070052B
:1000F200F3007408F0007508F100F10CF00CF11334
:10010200F10CF00CF113700895000F30970573088D
:040112009704080046
:10011600831603131208013EF000F1010318F10AD9
:1001260083122208F400F5010A200630F200700856
:10013600F4007108F50072080319A628F50CF40CF2
:10014600F513FF3E9F280430F1007408F000710893
:100156000319B128F00D7010FF3EAB283030700542
:10016600F3007408F0007508F100F10CF00CF113BF
:10017600F10CF00CF11370089B000F309D0573080D
:040186009D040800CC
:10018A0003208A110A128000840AA00A0319A10A0C
:08019A00F003031DC528080055
:1001A20083120313121492106330831692004B20B1
:1001B20012149210633083169200352043203B20A4
:1001C20083168610061186110612871007118312F4
:1001D20086140611FF30A20051200630FB001330B6
:1001E200FC00AD30FD00FD0BF428FC0BF428FB0BEA
:1001F200F4280000000086100615FF30A2005120EE
:100202000630FB001330FC00AD30FD00FD0B07296A
:10021200FC0B0729FB0B07290000000086150612BC
:100222006430A2008B200630FB001330FC00AD309E
:10023200FD00FD0B1A29FC0B1A29FB0B1A290000E1
:100242000000861106166430A2008B200630FB00E7
:100252001330FC00AD30FD00FD0B2D29FC0B2D29C8
:0C026200FB0B2D2900000000E8283629C5
:02400E004A2F37
:00000001FF
