:020000000329D2
:0E000600213083120313FD00FD0B07280800B4
:100014000F3083120313FC004730FD00FD0B102842
:0A002400FC0B10280000000008008B
:06002E00000000000800C4
:1000340083120313B01B2028061021280614301B3A
:100044002528861026288614B01A2A2806112B285B
:100054000615301A2F288611302886152A183428B8
:10006400061635280612861617208612B0193C2863
:1000740006103D280614301941288610422886149B
:10008400B018462806114728061530184B28861143
:100094004C2886152A18502806165128061286164A
:1000A400172086122A1C58280A20592803200800E1
:0E00B4008312031329088A002808820008001E
:1000C200831203132A102F08B0001A202A140800E2
:1000D2008316031386120612861106118610061065
:1000E20083128612061206108610061186110A2045
:1000F2000A200A20061586158616172086120A205F
:100102008616172086120A208616172086120A20C3
:1001120086118616172086120A2086161720861246
:10012200061106148616172086120A200610861556
:1001320086161720861286118616172086120A2026
:1001420086161720861286158616172086120A2012
:100152008611861617208612061486140615861531
:0C0162008616172086120A202A140800B6
:10016E00C928803083120313AB00DC28C030AB00EB
:10017E00DC289430AB00DC28D430AB00DC28803097
:10018E00AB00DC28831203132B08013A0319B8289D
:10019E002B08023A0319BD282B08033A0319C0286D
:1001AE002B08043A0319C328C6282C03F0002B0889
:1001BE00F0077008AB007008B0001A202A10AE01CC
:1001CE002E082D07840000080319F5282E082D0788
:1001DE0084000008AF006120AE0AE7282A14080048
:1001EE005A208A110A128000840AA80A0319A90A41
:0801FE00F003031DF7280800BF
:10020600733083120313A0006830A1006F30A20080
:100216007530A3006D30A4006D30A5006F30A600C8
:10022600A70169200130B0001A200C30B0001A2056
:100236000230AB000230AC002030AD00B7202229DE
:02400E004A2F37
:00000001FF
